S00F000047656E6572616C2E7372656357
S11300000C942A000C9460040C9447000C94470050
S11300100C9447000C9447000C9447000C94470040
S11300200C9447000C9447000C9447000C94470030
S11300300C9447000C9447000C9447000C94470020
S11300400C94A4030C9447000C9447000C944700B0
S11300500C94470011241FBECFE5D8E0DEBFCDBF0E
S113006010E0A0E6B0E0EEE1F9E002C005900D92E8
S1130070AE3BB107D9F720E0AEEBB0E001C01D9272
S1130080A83CB207E1F70E94C5000C948D040C94BF
S11300900000089540E060E082E00E94D503809172
S11300A0C100811109C061E084E00E943E0380E642
S11300B090E00E94310315C0813049F461E084E08E
S11300C00E943E0385E790E00E9431030AC082301B
S11300D041F461E084E00E943E038AE890E00E94DB
S11300E0310341E062E083E00E94D5032FEF89E60B
S11300F098E1215080409040E1F700C0000008954D
S113010061E084E00E943E038EE990E00E943103A6
S1130110089541E067E083E00E94D5038FE19EE407
S11301200197F1F700C0000040E067E083E00E941F
S1130130D5038FE19EE40197F1F700C00000089514
S11301408091BE008C3428F01092C1000E94890076
S113015008958091BF00873930F081E08093C10019
S11301600E94890008958091C000873930F082E0B0
S11301708093C1000E948900089541E060E082E01C
S11301800E94D5030E94800008958AE490E00E94B2
S11301905B0489E490E00E949F030E94CD030E94C7
S11301A061022FEF84E39CE0215080409040E1F70E
S11301B000C000000E9489040E9442040E947F0340
S11301C080E00E946E0341E060E082E00E94D5037B
S11301D061E081E00E943E0380E30E949E020EEBF8
S11301E010E0F8018081D9E28D9F812D1124829540
S11301F08F70805D0E949E02F8018081CDEC8C9FFF
S1130200812D11248695869586958C9F912D112498
S1130210969596959695990F292F220F220F920F56
S1130220891B805D0E949E02F80180818C9F912D24
S11302301124969596959695990F292F220F220FA2
S1130240920F891B805D0E949E028FED0E949E0288
S113025083E40E949E0261E082E00E943E0380E308
S11302600E949E02F80181818D9F812D1124829527
S11302708F70805D0E949E02F80181818C9F812D88
S113028011248695869586958C9F912D112496959B
S113029096959695990F292F220F220F920F891B5D
S11302A0805D0E949E02F80181818C9F912D112412
S11302B0969596959695990F292F220F220F920FB6
S11302C0891B805D0E949E0283EB90E00E943103B3
S11302D061E083E00E943E0380E30E949E02F801F5
S11302E082818D9F812D112482958F70805D0E9463
S11302F09E02F80182818C9F812D1124869586951A
S113030086958C9F912D1124969596959695990F87
S1130310292F220F220F920F891B805D0E949E02BB
S1130320F80182818C9FC12D1124C695C695C6956E
S1130330CC0F9C2F990F990FC90F8C1B805D0E94C5
S11303409E0288EB90E00E9431030E947603809322
S1130350C2009091C300911108C08093BE0081E057
S11303608093C3000E946E0316C0913051F4811132
S11303708093BF0082E08093C30084E00E946E03F8
S11303800AC0923041F481118093C0001092C300DE
S113039080E00E946E030E94A0001ACFCF93C82F62
S11303A040E063E080E00E94D5034C2F407150E0B0
S11303B05595479555954795559547955595479521
S11303C060E081E00E94D5034C2F407250E05595C7
S11303D04795559547955595479555954795559501
S11303E0479561E081E00E94D5034C2F407450E0B2
S11303F0042E452F000C441F550B000C441F551FA1
S113040063E081E00E94D5034C2F441F4427441F1E
S113041064E081E00E94D50341E062E080E00E9454
S1130420D50383EF91E00197F1F700C0000040E0AD
S113043062E080E00E94D50383EF91E00197F1F739
S113044000C000004C2F417060E081E00E94D503A1
S11304504C2F427050E05595479561E081E00E9431
S1130460D5034C2F447050E05595479555954795C5
S113047063E081E00E94D503C8704C2F50E055958D
S11304804795559547955595479564E081E00E94B9
S1130490D50341E062E080E00E94D50383EF91E060
S11304A00197F1F700C0000040E062E080E00E94A4
S11304B0D50383EF91E00197F1F700C00000CF91DD
S11304C008958FE097E20197F1F700C0000083E3FD
S11304D00E94CE0189EF90E00197F1F700C000007F
S11304E082E30E94CE0189EF90E00197F1F700C00A
S11304F0000088E20E94CE0189EF90E00197F1F7B5
S113050000C000008CE00E94CE0189EF90E00197CA
S1130510F1F700C0000081E00E94CE0189EF90E075
S11305200197F1F700C0000082E00E94CE0189EF3C
S113053090E00197F1F700C000000895CF93C82F11
S113054041E063E080E00E94D5034C2F407150E00D
S1130550559547955595479555954795559547957F
S113056060E081E00E94D5034C2F407250E0559525
S1130570479555954795559547955595479555955F
S1130580479561E081E00E94D5034C2F407450E010
S1130590042E452F000C441F550B000C441F551FFF
S11305A063E081E00E94D5034C2F441F4427441F7D
S11305B064E081E00E94D50341E062E080E00E94B3
S11305C0D50383EF91E00197F1F700C0000040E00C
S11305D062E080E00E94D50383EF91E00197F1F798
S11305E000C000004C2F417060E081E00E94D50300
S11305F04C2F427050E05595479561E081E00E9490
S1130600D5034C2F447050E0559547955595479523
S113061063E081E00E94D503C8704C2F50E05595EB
S11306204795559547955595479564E081E00E9417
S1130630D50341E062E080E00E94D50383EF91E0BE
S11306400197F1F700C0000040E062E080E00E9402
S1130650D50383EF91E00197F1F700C00000CF913B
S11306600895CF93DF93EC0103C00E949E0221966C
S113067088818111FACFDF91CF9108959FEF980F70
S11306809430C0F46531C0F46623C1F0813019F4AC
S11306908FE7860F16C0823019F48FEB860F11C0D6
S11306A0833019F483E9860F0CC0843049F483ED58
S11306B0860F07C080E805C080E803C080E801C059
S11306C080E80E94CE0189EF90E00197F1F700C025
S11306D00000089586B1806886B9089597B1907E28
S11306E0892B87B986B1806486B9089585B1089548
S11306F086B1886086B986B1806286B9089587B16B
S1130700806487B987B18F7787B987B1806287B9E9
S113071086B1816086B986B1826086B986B184600B
S113072086B986B18F7D86B986B18F7B86B986B14D
S11307308F7786B90E9478030E946A030895909384
S1130740C5008093C40008951F920F920FB60F92B4
S113075011242F933F934F935F936F937F938F93C2
S11307609F93AF93BF93EF93FF93E091C400F091F5
S1130770C500309709F00995FF91EF91BF91AF91B2
S11307809F918F917F916F915F914F913F912F91A5
S11307900F900FBE0F901F9018958CEE8ABB8FEFB1
S11307A087BB84BB8BEF81BB0895813001F130F0AE
S11307B08230B1F1833009F44CC00895413059F4CA
S11307C02BB381E090E002C0880F991F6A95E2F78D
S11307D0822B8BBB08952BB381E090E002C0880F7D
S11307E0991F6A95E2F7809582238BBB0895413067
S11307F059F428B381E090E002C0880F991F6A95EC
S1130800E2F7822B88BB089528B381E090E002C010
S1130810880F991F6A95E2F78095822388BB089513
S1130820413059F425B381E090E002C0880F991F4C
S11308306A95E2F7822B85BB089525B381E090E0A9
S113084002C0880F991F6A95E2F78095822385BBC1
S11308500895413059F422B381E090E002C0880F3A
S1130860991F6A95E2F7822B82BB089522B381E037
S113087090E002C0880F991F6A95E2F78095822361
S113088082BB08958BB780648BBF8BB780688BBFA6
S11308908BB780628BBF85B78E7F85BF85B782603B
S11308A085BF85B78B7F85BF85B7886085BF85B7D2
S11308B08B7F85BF08959093C7008093C6000895E9
S11308C01F920F920FB60F9211242F933F934F93C1
S11308D05F936F937F938F939F93AF93BF93EF93A4
S11308E0FF93E091C600F091C700309709F0099595
S11308F0FF91EF91BF91AF919F918F917F916F91F4
S11309005F914F913F912F910F900FBE0F901F90C9
S111091018958FB780688FBF0895F894FFCFB5
S113091E54656D70204578636565646564204C6923
S113092E6D69742E004C696768742045786365653B
S113093E6465644C696D69742E0052657320457844
S113094E636565646564204C696D69742E002020AE
S113095E2020202020202020202020202020202085
S111096E202000204C555800204F484D00001A
S9030000FC
